:020000040800F2
:100000000448054B10B5834203D0044B002B00D0AD
:10001000984710BD000000200000002000000000F4
:1000200006480749091A8B10C90FC91810B549109D
:1000300003D0044B002B00D0984710BD00000020D7
:10004000000000200000000010B5074C2378002BB2
:1000500009D1FFF7D5FF054B002B02D0044800E083
:1000600000BF0123237010BD00000020000000002D
:1000700098000008054B10B5002B03D00449054833
:1000800000E000BFFFF7CCFF10BDC046000000003D
:100090000400002098000008F8B5C046F8BC08BC71
:1000A0009E467047F8B5C046F8BC08BC9E467047EF
:0400B00075000008CF
:0400B40049000008F7
:0400000508000000EF
:00000001FF
